:1000000023C1000023C70000F6C60000C9C60000D7
:100010009CC600006FC6000042C6000015C6000066
:10002000E8C5000041C100003FC100003DC1000023
:100030003BC1000039C1000037C1000035C10000DC
:1000400033C1000031C100002FC100002DC10000EC
:100050002BC1000029C1000027C1000080C500009D
:1000600023C1000047C700001CC700001DC10000DD
:100070001BC1000019C1000017C1000015C100001C
:1000800013C1000011C100000FC100000DC100002C
:100090000BC1000009C1000007C1000005C100003C
:1000A00003C1000001C10000FFC00000FDC000004E
:1000B000FBC00000F9C00000F7C00000F5C0000060
:1000C000F3C00000F1C00000EFC00000EDC0000070
:1000D000EBC00000E9C00000E7C00000E5C0000080
:1000E000E3C0000070017301620166016C01AA01A6
:1000F00077017B018101850189018F0193019701BE
:10010000AA019D01A101A50105A84CCDB2D44EB90B
:100110003836A9020C50B9918688083CA6AAAA2AAA
:10012000BE000000803F00002100240027002A00BC
:100130002D003000330001010000040107010A0115
:1001400000002200250028002B002E003100340082
:1001500002010000050108010B010000200023003E
:10016000260029002C002F003200000100000301AE
:10017000060109010505050507050808080802022A
:1001800002020A0A08080404040401010101010131
:1001900001010303030303030303040707070C0C14
:1001A0000C0C0C0C0C0C02020202060606060606DB
:1001B00006060B0B0B0B0B0B0B0B01021020200880
:1001C00008102040102040800201020108040201B2
:1001D0000102040810204080804020100804020121
:1001E000800402018040201008040201080402017A
:1001F0000102040810204080010204081020408001
:1002000000000A0B02090C0D0E0807030401000090
:1002100000000000000000000000000000000000DE
:10022000000000000000000000000000121110009B
:1002300000000000000000000000000000000000BE
:10024000000000000000B00711241FBECFEFD1E274
:10025000DEBFCDBF00E00CBF27E0AAE9B2E001C0DD
:100260001D92AF35B207E1F712E0A0E0B2E0E2EE96
:10027000FEE100E00BBF02C007900D92AA39B10762
:10028000D9F711E0C4E2D1E000E006C021970109EE
:10029000802FFE010E940F0CC332D10780E00807B7
:1002A000A9F7E8D60C946F0FABCE90E0FC01319724
:1002B000E231F10508F04EC08827EE58FF4F8F4F0E
:1002C0000C940F0C809180008F7703C08091800088
:1002D0008F7D80938000089580918000877FF9CF83
:1002E00084B58F7702C084B58F7D84BD08958091D9
:1002F000B0008F7703C08091B0008F7D8093B000F5
:100300000895809190008F7707C0809190008F7D35
:1003100003C080919000877F809390000895809122
:10032000A0008F7707C08091A0008F7D03C08091CF
:10033000A000877F8093A0000895809120018F778F
:1003400007C0809120018F7D03C080912001877FAD
:10035000809320010895CF93DF93282F30E0F90197
:10036000E050FE4F8491F901E654FE4FD491F9011B
:10037000EC58FE4FC491CC2389F0811196DFEC2F0D
:10038000F0E0EE0FFF1FE65AFE4FA591B491EC91FD
:10039000ED2381E090E021F480E002C080E090E075
:1003A000DF91CF9108951F93CF93DF93282F30E0F3
:1003B000F901E050FE4F8491F901E654FE4FD491CB
:1003C000F901EC58FE4FC491CC23C1F0162F8111D6
:1003D0006CDFEC2FF0E0EE0FFF1FE05CFE4FA5910D
:1003E000B4918FB7F894111105C09C91ED2FE09551
:1003F000E92302C0EC91ED2BEC938FBFDF91CF91FD
:100400001F910895CF93DF9390E0FC01E654FE4FD7
:100410002491FC01EC58FE4F8491882361F190E017
:10042000880F991FFC01EA5DFE4FC591D491FC0134
:10043000E05CFE4FA591B491611109C09FB7F8949B
:100440008881209582238883EC912E230BC0623013
:1004500061F49FB7F8943881822F80958323888335
:10046000EC912E2B2C939FBF06C08FB7F894E88198
:100470002E2B28838FBFDF91CF9108953FB7F8943B
:100480008091AC069091AD06A091AE06B091AF06FA
:1004900026B5A89B05C02F3F19F00196A11DB11DDF
:1004A0003FBFBA2FA92F982F8827820F911DA11D1A
:1004B000B11DBC01CD0142E0660F771F881F991F57
:1004C0004A95D1F708958F929F92AF92BF92CF92A3
:1004D000DF92EF92FF926B017C01D0DF4B015C0158
:1004E000C114D104E104F104E9F0C8DFDC01CB015F
:1004F00088199909AA09BB09883E9340A105B1054D
:1005000078F321E0C21AD108E108F10888EE880EDC
:1005100083E0981EA11CB11CC114D104E104F104B4
:1005200021F7DECFFF90EF90DF90CF90BF90AF909C
:100530009F908F90089580911802909119020597CD
:1005400034F48091180290911902019602C081E062
:1005500090E090931902809318021092A0061092D6
:100560009F0608950895CF92DF92EF92FF920F9326
:100570001F93CF93DF936C017A018B01C0E0D0E031
:10058000CE15DF0589F0D8016D918D01D601ED9171
:10059000FC910190F081E02DC6011995892B11F491
:1005A0007E0102C02196ECCFC701DF91CF911F9150
:1005B0000F91FF90EF90DF90CF900895FC01918D07
:1005C000828D981761F0828DDF01A80FB11D5D96B5
:1005D0008C91928D9F5F9F73928F90E008958FEF23
:1005E0009FEF0895FC01918D828D981731F0828DD7
:1005F000E80FF11D858D90E008958FEF9FEF08952E
:10060000FC01918D228D892F90E0805C9F4F821B91
:1006100091098F739927089580EB96E0F1DF21E02F
:10062000892B09F420E0822F0895FC01848DDF01DD
:10063000A80FB11DA35ABF4F2C91848D90E0019655
:100640008F739927848FA689B7892C93A089B18944
:100650008C9180648C93938D848D981306C002884E
:10066000F389E02D80818F7D80830895EF92FF9242
:100670000F931F93CF93DF93EC0181E0888F9B8DC5
:100680008C8D981305C0E889F989808185FD23C088
:10069000F62E0B8D10E00F5F1F4F0F731127E02E0A
:1006A0008C8DE8120BC00FB607FCFACFE889F989E8
:1006B000808185FFF5CFCE01B8DFF2CF8B8DFE01B3
:1006C000E80FF11DE35AFF4FF0820B8FEA89FB8997
:1006D0008081806207C0EE89FF896083E889F9899B
:1006E00080818064808381E090E0DF91CF911F91D1
:1006F0000F91FF90EF900895CF93DF93EC01888DD9
:100700008823C1F0EA89FB89808185FD05C0A8891D
:10071000B9898C9186FD0EC00FB607FCF5CF80819C
:1007200085FFF2CFA889B9898C9185FFEDCFCE01E5
:100730007CDFE8CFDF91CF91089580E090E0892BB6
:1007400019F06ADF811125C080E090E0892B41F02B
:1007500080E090E0892B21F00E94000081111CC0F4
:1007600080E090E0892B41F080E090E0892B21F03F
:100770000E940000811113C080E090E0892BA1F05D
:1007800080E090E0892B81F00E94000081110AC076
:1007900008950E940000D8CF0E940000E1CF0E947F
:1007A0000000EACF0C9400000895CF93C82F60E0BA
:1007B00086E0F9DD1EBC00000DB407FEFDCF8EB54E
:1007C000CEBD00000DB407FEFDCF8EB561E086E022
:1007D000CF91E9CD8F929F92AF92BF92CF92DF924D
:1007E000EF92FF92CF93DF9300D01F92CDB7DEB789
:1007F0008091180290911902892B29F480E090E0F1
:10080000AAEFB3E404C080E090E0AAE7B4E48093E8
:100810005B0790935C07A0935D07B0935E0780E051
:1008200090E0AAE7B3E48093570790935807A0930A
:100830005907B0935A072FB7F8948091A806909162
:10084000A906A091AA06B091AB062FBFBC01CD01AD
:100850006F5F7F4F8F4F9F4F0E94190D6B017C017F
:100860008091040290910502A0910602B0910702C6
:100870000197A105B10591F060911A0270911B02D8
:1008800080911C0290911D020E94190D20E030E021
:100890004AEF54E40E947C0C81112DC0C701B601BF
:1008A0000E94ED0C6093040270930502809306028F
:1008B0009093070220911A0230911B0240911C0272
:1008C00050911D0260E67AEE80E090E00E943E0FBB
:1008D00030935207209351070F900F900F900F9075
:1008E000DF91CF91FF90EF90DF90CF90BF90AF90CE
:1008F0009F908F90089560910402709105028091FD
:1009000006029091070280905B0790905C07A09090
:100910005D07B0905E070E94190D9B01AC01C701F5
:10092000B60185D7A50194010E94CB0D87FD20C09B
:100930006091040270910502809106029091070275
:100940000E94190D9B01AC01C701B60170D720E0D0
:1009500030E04AEF54E40E94CB0D87FF9FCF6091B7
:100960005B0770915C0780915D0790915E074EC0B8
:10097000C701B6010E94ED0C609300027093010262
:1009800080930202909303028091000290910102F1
:10099000A0910202B091030240910402509105021D
:1009A0006091060270910702841B950BA60BB70B92
:1009B00080931A0290931B02A0931C02B0931D0215
:1009C00060911A0270911B0280911C0290911D028D
:1009D00020915707309158074091590750915A0775
:1009E00029833A834B835C830E94190D29813A81C4
:1009F0004B815C8181D718160CF45CCF609157074E
:100A0000709158078091590790915A07E6D76093E3
:100A10001A0270931B0280931C0290931D024ACF0E
:100A2000009761F0FC0101900020E9F73197AF01D8
:100A3000481B590BBC0180EB96E095CD80E090E01F
:100A400008958F929F92AF92BF920F931F93CF936F
:100A5000DF93CDB7DEB7A1970FB6F894DEBF0FBE18
:100A6000CDBF19A2423008F44AE08E010F5D1F4F3E
:100A7000842E912CA12CB12CA50194010E943E0F33
:100A8000E62FB901CA0101501109EA3014F4E05D02
:100A900001C0E95CD801EC93232B242B252B61F7B3
:100AA000C801BEDFA1960FB6F894DEBF0FBECDBF62
:100AB000DF91CF911F910F91BF90AF909F908F903A
:100AC0000895CF93DF9382E392E0AADF609151070C
:100AD0007091520780E090E04AE0B3DF80E992E055
:100AE0009FDF82E138DCEC0183E135DCC817D907F0
:100AF00031F480915107909152070A9605C0809178
:100B00005107909152070A9790935207809351078B
:100B100080E592E085DF609151077091520780E097
:100B200090E04AE08EDF80E992E07ADF2091510781
:100B30003091520740E050E060E67AEE80E090E0CD
:100B40000E94120F20931A0230931B0240931C0242
:100B500050931D02DF91CF9108950E94B90E1F920C
:100B60000F920FB60F9211242F933F938F939F9361
:100B7000AF93BF938091A8069091A906A091AA0671
:100B8000B091AB063091A70623E0230F2D3720F458
:100B90000196A11DB11D05C026E8230F0296A11DD7
:100BA000B11D2093A7068093A8069093A906A09351
:100BB000AA06B093AB068091AC069091AD06A091C9
:100BC000AE06B091AF060196A11DB11D8093AC0693
:100BD0009093AD06A093AE06B093AF06BF91AF91D0
:100BE0009F918F913F912F910F900FBE0F901F906B
:100BF00018951F920F920FB60F9211240BB60F92F9
:100C00002F933F934F935F936F937F938F939F9314
:100C1000AF93BF93EF93FF93E0911602F091170209
:100C20001995FF91EF91BF91AF919F918F917F9116
:100C30006F915F914F913F912F910F900BBE0F904D
:100C40000FBE0F901F9018951F920F920FB60F9224
:100C500011240BB60F922F933F934F935F936F9393
:100C60007F938F939F93AF93BF93EF93FF93E09105
:100C70001402F09115021995FF91EF91BF91AF9178
:100C80009F918F917F916F915F914F913F912F91A4
:100C90000F900BBE0F900FBE0F901F9018951F92D4
:100CA0000F920FB60F9211240BB60F922F933F9312
:100CB0004F935F936F937F938F939F93AF93BF9364
:100CC000EF93FF93E0910A02F0910B021995FF91C7
:100CD000EF91BF91AF919F918F917F916F915F91B4
:100CE0004F913F912F910F900BBE0F900FBE0F9021
:100CF0001F9018951F920F920FB60F9211240BB6EA
:100D00000F922F933F934F935F936F937F938F93A4
:100D10009F93AF93BF93EF93FF93E0910802F091FD
:100D200009021995FF91EF91BF91AF919F918F911A
:100D30007F916F915F914F913F912F910F900BBEDB
:100D40000F900FBE0F901F9018951F920F920FB625
:100D50000F9211240BB60F922F933F934F935F93F3
:100D60006F937F938F939F93AF93BF93EF93FF9373
:100D7000E0911202F09113021995FF91EF91BF914A
:100D8000AF919F918F917F916F915F914F913F9123
:100D90002F910F900BBE0F900FBE0F901F901895C4
:100DA0001F920F920FB60F9211240BB60F922F9332
:100DB0003F934F935F936F937F938F939F93AF93E3
:100DC000BF93EF93FF93E0911002F09111021995F8
:100DD000FF91EF91BF91AF919F918F917F916F9113
:100DE0005F914F913F912F910F900BBE0F900FBECF
:100DF0000F901F9018951F920F920FB60F9211240B
:100E00000BB60F922F933F934F935F936F937F9304
:100E10008F939F93AF93BF93EF93FF93E0910E0255
:100E2000F0910F021995FF91EF91BF91AF919F91B2
:100E30008F917F916F915F914F913F912F910F9083
:100E40000BBE0F900FBE0F901F9018951F920F9220
:100E50000FB60F9211240BB60F922F933F934F931F
:100E60005F936F937F938F939F93AF93BF93EF9312
:100E7000FF93E0910C02F0910D021995FF91EF9113
:100E8000BF91AF919F918F917F916F915F914F91A2
:100E90003F912F910F900BBE0F900FBE0F901F90A0
:100EA00018951F920F920FB60F9211240BB60F9246
:100EB0002F933F934F935F936F937F938F939F9362
:100EC000AF93BF93EF93FF9380EB96E0AEDBFF9180
:100ED000EF91BF91AF919F918F917F916F915F91B2
:100EE0004F913F912F910F900BBE0F900FBE0F901F
:100EF0001F9018951F920F920FB60F9211240BB6E8
:100F00000F922F938F939F93EF93FF93E091C006DF
:100F1000F091C1068081E091C606F091C70682FD7E
:100F200012C090818091C9068F5F8F732091CA068D
:100F3000821751F0E091C906F0E0E055F94F958F26
:100F40008093C90601C08081FF91EF919F918F919D
:100F50002F910F900BBE0F900FBE0F901F90189502
:100F6000E0EBF6E01382128288EE93E0A0E0B0E0BE
:100F700084839583A683B78386E292E091838083FE
:100F800085EC90E09587848784EC90E0978786874E
:100F900080EC90E0918B808B81EC90E0938B828B46
:100FA00082EC90E0958B848B86EC90E0978B868B1F
:100FB000118E128E138E148E80E090E0AAEFB3E4AF
:100FC00080935B0790935C07A0935D07B0935E07E7
:100FD00080E090E0AAE7B3E4809357079093580726
:100FE000A0935907B0935A0720915B0730915C0793
:100FF00040915D0750915E0760E070E68AE697E4F5
:101000007FD4EBD470935607609355072091570710
:10101000309158074091590750915A0760E070E6A7
:101020008AE697E46DD4D9D470935407609353073C
:1010300060911A0270911B0280911C0290911D0216
:10104000F8D49B01AC0160E070E68AE697E458D4DE
:10105000C4D4709352076093510780E090E4ACE1F0
:10106000B6E480934D0790934E07A0934F07B0933B
:1010700050070895CF93DF9300D01F92CDB7DEB70E
:10108000789484B5826084BD84B5816084BD85B563
:10109000826085BD85B5816085BD80916E0081606F
:1010A00080936E0010928100809181008260809315
:1010B0008100809181008160809381008091800017
:1010C0008160809380008091B10084608093B10042
:1010D0008091B00081608093B00080919100826027
:1010E0008093910080919100816080939100809124
:1010F00090008160809390008091A1008260809335
:10110000A1008091A10081608093A1008091A00046
:1011100081608093A00080912101826080932101F1
:101120008091210181608093210180912001816063
:101130008093200180917A00846080937A0080916E
:101140007A00826080937A0080917A008160809337
:101150007A0080917A00806880937A001092C100B2
:1011600061E089E04FD961E086E04CD960E083E03E
:1011700049D960E082E046D960E082E143D960E08D
:1011800083E140D98AEE93E090930B0280930A02A8
:1011900080916A00837F886080936A00ED9A8BE972
:1011A00092E0909309028093080280916A008C7FFC
:1011B000826080936A00EC9A81E695E09093130236
:1011C00080931202809169008F7380688093690018
:1011D000EB9A80917B00877F80937B0080E48093F3
:1011E0007C0080917A00806480937A0080917A00FC
:1011F00086FDFCCF609178008091790070E0782BBB
:10120000072E000C880B990B61157105810591055E
:1012100009F0FFD50FE912E0BFE92B2EB5E03B2E18
:101220008FE9882E84E0982E2FE933E03A832983D2
:101230001C821B829FE7A92EB12CEB81FC81BF0190
:10124000FF0F880B990BF7D320E030E040E05CE320
:10125000A6D426E53EE049EC50E4A1D460939B027D
:1012600070939C0280939D0290939E028AE592E087
:10127000D7DBC0909B02D0909C02E0909D02F09042
:101280009E02A7019601C701B601F2D4882319F086
:1012900083E692E018C026013701E89477F82FEF33
:1012A0003FEF4FE75FE7C301B201E2D481110DC008
:1012B0002FEF3FEF4FE75FE7C301B2011DD31816D1
:1012C00024F487E692E0ACDB6AC02FEF3FEF4FE7F4
:1012D0005FE4C701B6015FD418161CF48BE692E0F8
:1012E000F2CF2FEF3FEF4FE75FECC701B60104D31A
:1012F00087FDF4CF20E030E0A901C701B601FCD2A0
:1013000087FF0FC0E091B006F091B1060190F08127
:10131000E02D6DE280EB96E01995F7FAF094F7F87E
:10132000F0942AE037ED43EA5BE3C701B60180D2CF
:101330002B013C0152D36B017C017BD39B01AC019F
:10134000C301B20174D22B013C014AE0C701B601CE
:1013500078DB8FE692E064DB20E030E040E251E4AD
:10136000C301B2011CD46B017C0137D32B01612C6A
:10137000712C4AE0C301B20164DBC301B20159D34D
:101380009B01AC01C701B60152D220E030E040E23F
:1013900051E405D422D380E090E04AE052DB80E9BA
:1013A00092E03EDB60919B0270919C0280919D02D5
:1013B00090919E0257D420E030E04EE752E4EFD304
:1013C00020E030E04EE752E433D26B017C0120E0B4
:1013D00030E0A901E0D320E030E040E05FE387FDAA
:1013E00004C0C701B60124D203C0C701B6011FD291
:1013F000EFD2F101619371931F01F4012B813C81C4
:10140000219331934F01C501821B930BE981FA812E
:1014100081939193FA83E983F801203431051CF418
:10142000B182A08202C0118210822B813C812F5F89
:101430003F4F3C832B830E5F1F4F2038310509F04F
:10144000FCCE1FB7F89480919A02811127C0E9EA77
:10145000F1E08491EFEEF1E09491E82FF0E0EE0FEF
:10146000FF1FEA5DFE4FA591B491EC91E92321F4B1
:1014700061E085E30E94D30161E085E30E940202FE
:101480008CB580618CBD8CB580648CBD61E084E3DB
:101490000E94020261E083E30E94020280919A02AC
:1014A0008F5F80939A021FBFE091C006F091C10642
:1014B00082E08083E091BC06F091BD061082E0914D
:1014C000BE06F091BF068FEC80831092C806E091B3
:1014D000C406F091C50686E08083E091C206F091D3
:1014E000C306808180618083E091C206F091C306CB
:1014F000808188608083E091C206F091C30680817C
:1015000080688083E091C206F091C30680818F7D60
:10151000808381E792E084DAF8E72F2E312C00EF08
:1015200010E080E892E07CDA809118029091190234
:10153000892B09F0D1C02091510730915207809139
:10154000A5069091A6062817390709F426C182E955
:1015500092E066DA609151077091520780E090E066
:101560004AE06FDA60915107709152073092560746
:10157000209255071093540700935307C0904D07CE
:10158000D0904E07E0904F07F090500780E090E039
:1015900050D24B015C01A701960160E070E080EF42
:1015A00092E4AED19B01AC01C501B401F8D210D2D6
:1015B0007093A4066093A306072E000C880B990B6A
:1015C0003AD24B015C0120E030E0A901C701B6012D
:1015D000E2D220E030E040E05FE387FD04C0C701D5
:1015E000B60126D103C0C701B60121D1F1D123D262
:1015F0002B013C01A7019601C501B401CCD21816FC
:1016000074F020E030E04EEF52E4C301B20178D133
:101610009B01AC01C501B40173D1DAD102C060E015
:1016200070E07093A2066093A1068091A10690914C
:10163000A206BBD861E089E00E94D30180911A0222
:1016400090911B02A0911C02B0911D0260911A02A0
:1016500070911B0280911C0290911D022AE030E0E3
:1016600040E050E00BD4CA01B901E3D120E030E002
:1016700040E05FE3DDD0ACD10E94630260E089E02E
:101680000E94D30180911A0290911B02A0911C022A
:10169000B0911D0280911A0290911B02A0911C0230
:1016A000B0911D02BC01CD01E2E0660F771F881FDB
:1016B000991FEA95D1F72AE030E040E050E0DED310
:1016C000CA01B901B6D120E030E040E05FE3B0D01C
:1016D0007FD10E94630261C080911802909119022B
:1016E000181619063CF0809118029091190205977E
:1016F00009F453C080919F069091A0068F37910501
:1017000021F41092A00610929F06209118023091A9
:10171000190280919F069091A0062330310509F4AB
:101720005AC00CF445C02430310509F460C025309E
:10173000310509F462C0E0909F06F090A0063FEFEB
:10174000E31AF30AF092A006E0929F068091A106A8
:101750009091A2069093A2068093A1068091A10683
:101760009091A20622D860911A0270911B0280917A
:101770001C0290911D022FE730E040E050E07ED344
:10178000CA01B9010E94630289E1E816F1040CF074
:1017900044C061E089E00E94D3018091510790919B
:1017A00052079093A6068093A5060E949D03B9CE8A
:1017B0002130310551F02230310509F0BCCF880FBE
:1017C000991FFC01E156FB4F0BC0880F991FFC01CC
:1017D000E156FA4F05C0880F991FFC01E156FC4FF6
:1017E000808191819093A2068093A106A4CF880F57
:1017F000991FFC01E156FD4FF3CF009719F0CF97E9
:1018000009F099CF03D32BE630E040E050E00AD353
:101810007093A2066093A1068ECF60E0BBCFEE0F5F
:10182000FF1F881F8BBF0790F691E02D1994505829
:10183000BB27AA270ED075C166D130F06BD120F03E
:1018400031F49F3F11F41EF45BC10EF4E095E7FB09
:1018500051C1E92F77D180F3BA1762077307840764
:10186000950718F071F49EF58FC10EF4E0950B2EDC
:10187000BA2FA02D0B01B90190010C01CA01A001E2
:101880001124FF27591B99F0593F50F4503E68F13D
:101890001A16F040A22F232F342F4427585FF3CF7E
:1018A000469537952795A795F0405395C9F77EF44F
:1018B0001F16BA0B620B730B840BBAF09150A1F098
:1018C000FF0FBB1F661F771F881FC2F70EC0BA0F1E
:1018D000621F731F841F48F4879577956795B795A6
:1018E000F7959E3F08F0B3CF9395880F08F099279E
:1018F000EE0F979587950895D9D008F481E0089563
:101900000CD00FC107D140F0FED030F021F45F3F82
:1019100019F0F0C0511139C1F3C014D198F39923D3
:10192000C9F35523B1F3951B550BBB27AA276217A3
:101930007307840738F09F5F5F4F220F331F441FE8
:10194000AA1FA9F333D00E2E3AF0E0E830D0915020
:101950005040E695001CCAF729D0FE2F27D0660F0D
:10196000771F881FBB1F261737074807AB07B0E84C
:1019700009F0BB0B802DBF01FF2793585F4F2AF062
:101980009E3F510568F0B6C000C15F3FECF3983E42
:10199000DCF3869577956795B795F7959F5FC9F7BF
:1019A000880F911D9695879597F90895E1E0660F48
:1019B000771F881FBB1F621773078407BA0720F0C1
:1019C000621B730B840BBA0BEE1F88F7E09508952A
:1019D00004D06894B111D9C00895BCD088F09F5745
:1019E00090F0B92F9927B751A0F0D1F0660F771F6B
:1019F000881F991F1AF0BA95C9F712C0B13081F04B
:101A0000C3D0B1E00895C0C0672F782F8827B85F92
:101A100039F0B93FCCF3869577956795B395D9F7AB
:101A20003EF490958095709561957F4F8F4F9F4FB5
:101A30000895E89409C097FB3EF4909580957095C1
:101A400061957F4F8F4F9F4F9923A9F0F92F96E90A
:101A5000BB279395F695879577956795B795F1117F
:101A6000F8CFFAF4BB0F11F460FF1BC06F5F7F4F1C
:101A70008F4F9F4F16C0882311F096E911C077232E
:101A800021F09EE8872F762F05C0662371F096E837
:101A9000862F70E060E02AF09A95660F771F881F06
:101AA000DAF7880F9695879597F90895990F0008AA
:101AB000550FAA0BE0E8FEEF16161706E807F90720
:101AC000C0F012161306E407F50798F0621B730BBB
:101AD000840B950B39F40A2661F0232B242B252B3C
:101AE00021F408950A2609F4A140A6958FEF811DDF
:101AF000811D089597F99F6780E870E060E0089580
:101B00009FEF80EC089500240A9416161706180615
:101B10000906089500240A941216130614060506F1
:101B20000895092E0394000C11F4882352F0BB0F82
:101B300040F4BF2B11F460FF04C06F5F7F4F8F4FE5
:101B40009F4F089557FD9058440F551F59F05F3F20
:101B500071F04795880F97FB991F61F09F3F79F0CF
:101B600087950895121613061406551FF2CF469551
:101B7000F1DF08C0161617061806991FF1CF8695D3
:101B80007105610508940895E894BB2766277727B7
:101B9000CB0197F908958ADF08F48FEF08950BD0F1
:101BA000C0CFB1DF28F0B6DF18F0952309F0A2CF3F
:101BB000A7CF1124EACFC6DFA0F3959FD1F3950FED
:101BC00050E0551F629FF001729FBB27F00DB11DC1
:101BD000639FAA27F00DB11DAA1F649F6627B00D51
:101BE000A11D661F829F2227B00DA11D621F739F3A
:101BF000B00DA11D621F839FA00D611D221F749F48
:101C00003327A00D611D231F849F600D211D822F8E
:101C1000762F6A2F11249F5750408AF0E1F08823D5
:101C20004AF0EE0FFF1FBB1F661F771F881F9150E2
:101C30005040A9F79E3F510570F05CCFA6CF5F3FA3
:101C4000ECF3983EDCF3869577956795B795F79515
:101C5000E7959F5FC1F7FE2B880F911D969587959D
:101C600097F908959F9309D00F9007FCEE5F2CC061
:101C70001DDF880B990B089543CF6CDFE8F3E894E0
:101C8000E0E0BB279F57F0F02AED3FE049EC06C0AB
:101C9000EE0FBB0F661F771F881F28F0B23A62074E
:101CA0007307840728F0B25A620B730B840BE39519
:101CB0009A9572F7803830F49A95BB0F661F771F9C
:101CC000881FD2F7904813C0EF93E0FF06C0A2EA46
:101CD0002AED3FE049EC5FEBBCDD23DF0F9003947E
:101CE00001FC9058E8E0F1E00EC09F3F31F09150C8
:101CF00020F4879577956795B795880F911D9695F0
:101D0000879597F908959F938F937F936F93FF9390
:101D1000EF939B01AC0143DFEF91FF9105D02F9131
:101D20003F914F915F913BCFDF93CF931F930F93E1
:101D3000FF92EF92DF927B018C01689405C0DA2E4E
:101D4000EF0139DFFE01E894A59125913591459188
:101D50005591AEF3EF017DDDFE019701A801DA9404
:101D600079F7DF90EF90FF900F911F91CF91DF9166
:101D7000089581E090E0F894B2C08F929F92AF9264
:101D8000BF92CF92DF92EF92FF92CF93DF93EC015D
:101D9000688179818A819B81611571058105910531
:101DA00021F464E279ED8BE597E02DE133EF41E03A
:101DB00050E038D049015A019B01AC01A7EAB1E4D7
:101DC0004DD06B017C01ACEEB4EFA501940152D073
:101DD000DC01CB018C0D9D1DAE1DBF1DB7FF03C0E7
:101DE0000197A109B04888839983AA83BB83BC016A
:101DF000CD019F77DF91CF91FF90EF90DF90CF9053
:101E0000BF90AF909F908F900895B7CF8EE192E0F2
:101E1000B4CF60931E0270931F02809320029093B0
:101E200021020895052E97FB16F400940FD057FD5C
:101E300005D024D007FC02D046F408C05095409548
:101E4000309521953F4F4F4F5F4F08959095809566
:101E5000709561957F4F8F4F9F4F089531D0A59F0B
:101E6000900DB49F900DA49F800D911D1124089595
:101E7000B7FFF4CFF3DF821B930B0895A1E21A2E74
:101E8000AA1BBB1BFD010DC0AA1FBB1FEE1FFF1F1E
:101E9000A217B307E407F50720F0A21BB30BE40B6E
:101EA000F50B661F771F881F991F1A9469F76095B5
:101EB0007095809590959B01AC01BD01CF0108956F
:101EC000A29FB001B39FC001A39F700D811D11247B
:101ED000911DB29F700D811D1124911D0895F894DC
:021EE000FFCF32
:101EE2000100000001000000B202B202B202B2021E
:101EF200B202B202B202B2020300F4010000010017
:101F02000000000000003603B3020003DE02F2020A
:101F12007C030A48656C6C6F2066726F6D20656E7B
:101F220063204368616E67652E2042504D3A20005F
:101F32004E65772042504D3A200073696E526164BB
:101F42003A20006E616E00696E66006F7666002E42
:101F52000050726F6772616D2053746172740A006F
:101F620068656C6C6F2066726F6D206C6F6F70208D
:0A1F72000A000A42504D3A20000018
:00000001FF
